{
  "address": "0xe7f1725E7734CE288F8367e1Bb143E90bb3F0512",
  "abi": [
    {
      "inputs": [
        {
          "internalType": "address",
          "name": "networkAddress",
          "type": "address"
        }
      ],
      "stateMutability": "nonpayable",
      "type": "constructor"
    },
    {
      "inputs": [],
      "name": "fundMe__NotOwner",
      "type": "error"
    },
    {
      "stateMutability": "payable",
      "type": "fallback"
    },
    {
      "inputs": [],
      "name": "MININUM_USD_VALUE",
      "outputs": [
        {
          "internalType": "uint256",
          "name": "",
          "type": "uint256"
        }
      ],
      "stateMutability": "view",
      "type": "function"
    },
    {
      "inputs": [],
      "name": "fund",
      "outputs": [],
      "stateMutability": "payable",
      "type": "function"
    },
    {
      "inputs": [
        {
          "internalType": "uint256",
          "name": "",
          "type": "uint256"
        }
      ],
      "name": "funders",
      "outputs": [
        {
          "internalType": "address",
          "name": "",
          "type": "address"
        }
      ],
      "stateMutability": "view",
      "type": "function"
    },
    {
      "inputs": [],
      "name": "i_owner",
      "outputs": [
        {
          "internalType": "address",
          "name": "",
          "type": "address"
        }
      ],
      "stateMutability": "view",
      "type": "function"
    },
    {
      "inputs": [],
      "name": "priceFeedContract",
      "outputs": [
        {
          "internalType": "contract AggregatorV3Interface",
          "name": "",
          "type": "address"
        }
      ],
      "stateMutability": "view",
      "type": "function"
    },
    {
      "inputs": [],
      "name": "widthDraw",
      "outputs": [],
      "stateMutability": "nonpayable",
      "type": "function"
    },
    {
      "stateMutability": "payable",
      "type": "receive"
    }
  ],
  "transactionHash": "0xe65e8e738c954fa442665702ef93109a02b5d5e2d82255191de33b121622ca41",
  "args": [
    "0x5FbDB2315678afecb367f032d93F642f64180aa3"
  ],
  "numDeployments": 1,
  "solcInputHash": "6e466b05679873ce5d3e359cb5c7dfa4",
  "bytecode": "0x60a060405234801561001057600080fd5b50604051610d93380380610d9383398181016040528101906100329190610110565b80600260006101000a81548173ffffffffffffffffffffffffffffffffffffffff021916908373ffffffffffffffffffffffffffffffffffffffff1602179055503373ffffffffffffffffffffffffffffffffffffffff1660808173ffffffffffffffffffffffffffffffffffffffff16815250505061013d565b600080fd5b600073ffffffffffffffffffffffffffffffffffffffff82169050919050565b60006100dd826100b2565b9050919050565b6100ed816100d2565b81146100f857600080fd5b50565b60008151905061010a816100e4565b92915050565b600060208284031215610126576101256100ad565b5b6000610134848285016100fb565b91505092915050565b608051610c3461015f600039600081816102af01526103120152610c346000f3fe6080604052600436106100595760003560e01c80634b6f67101461007257806365082e801461009d578063b60d4288146100c8578063dba6335f146100d2578063dc0d3dff146100fd578063f03de3971461013a57610068565b3661006857610066610151565b005b610070610151565b005b34801561007e57600080fd5b5061008761027a565b6040516100949190610737565b60405180910390f35b3480156100a957600080fd5b506100b26102a0565b6040516100bf919061076b565b60405180910390f35b6100d0610151565b005b3480156100de57600080fd5b506100e76102ad565b6040516100f491906107a7565b60405180910390f35b34801561010957600080fd5b50610124600480360381019061011f91906107f3565b6102d1565b60405161013191906107a7565b60405180910390f35b34801561014657600080fd5b5061014f610310565b005b6802b5e3af16b1880000610190600260009054906101000a900473ffffffffffffffffffffffffffffffffffffffff163461054a90919063ffffffff16565b10156101d1576040517f08c379a00000000000000000000000000000000000000000000000000000000081526004016101c89061087d565b60405180910390fd5b6000339080600181540180825580915050600190039060005260206000200160009091909190916101000a81548173ffffffffffffffffffffffffffffffffffffffff021916908373ffffffffffffffffffffffffffffffffffffffff16021790555034600160003373ffffffffffffffffffffffffffffffffffffffff1673ffffffffffffffffffffffffffffffffffffffff16815260200190815260200160002081905550565b600260009054906101000a900473ffffffffffffffffffffffffffffffffffffffff1681565b6802b5e3af16b188000081565b7f000000000000000000000000000000000000000000000000000000000000000081565b600081815481106102e157600080fd5b906000526020600020016000915054906101000a900473ffffffffffffffffffffffffffffffffffffffff1681565b7f000000000000000000000000000000000000000000000000000000000000000073ffffffffffffffffffffffffffffffffffffffff163373ffffffffffffffffffffffffffffffffffffffff1614610395576040517f73525c0400000000000000000000000000000000000000000000000000000000815260040160405180910390fd5b60005b60008054905081101561043a5760008082815481106103ba576103b961089d565b5b9060005260206000200160009054906101000a900473ffffffffffffffffffffffffffffffffffffffff1690506000600160008373ffffffffffffffffffffffffffffffffffffffff1673ffffffffffffffffffffffffffffffffffffffff16815260200190815260200160002081905550508080600101915050610398565b50600067ffffffffffffffff811115610456576104556108cc565b5b6040519080825280602002602001820160405280156104845781602001602082028036833780820191505090505b506000908051906020019061049a929190610611565b5060003373ffffffffffffffffffffffffffffffffffffffff16476040516104c19061092c565b60006040518083038185875af1925050503d80600081146104fe576040519150601f19603f3d011682016040523d82523d6000602084013e610503565b606091505b5050905080610547576040517f08c379a000000000000000000000000000000000000000000000000000000000815260040161053e9061098d565b60405180910390fd5b50565b60008061055683610580565b9050670de0b6b3a7640000818561056d91906109dc565b6105779190610a4d565b91505092915050565b6000808273ffffffffffffffffffffffffffffffffffffffff1663feaf968c6040518163ffffffff1660e01b815260040160a060405180830381865afa1580156105ce573d6000803e3d6000fd5b505050506040513d601f19601f820116820180604052508101906105f29190610b0b565b5050509150506402540be400816106099190610b86565b915050919050565b82805482825590600052602060002090810192821561068a579160200282015b828111156106895782518260006101000a81548173ffffffffffffffffffffffffffffffffffffffff021916908373ffffffffffffffffffffffffffffffffffffffff16021790555091602001919060010190610631565b5b509050610697919061069b565b5090565b5b808211156106b457600081600090555060010161069c565b5090565b600073ffffffffffffffffffffffffffffffffffffffff82169050919050565b6000819050919050565b60006106fd6106f86106f3846106b8565b6106d8565b6106b8565b9050919050565b600061070f826106e2565b9050919050565b600061072182610704565b9050919050565b61073181610716565b82525050565b600060208201905061074c6000830184610728565b92915050565b6000819050919050565b61076581610752565b82525050565b6000602082019050610780600083018461075c565b92915050565b6000610791826106b8565b9050919050565b6107a181610786565b82525050565b60006020820190506107bc6000830184610798565b92915050565b600080fd5b6107d081610752565b81146107db57600080fd5b50565b6000813590506107ed816107c7565b92915050565b600060208284031215610809576108086107c2565b5b6000610817848285016107de565b91505092915050565b600082825260208201905092915050565b7f4469646e742073656e7420656e6f756768204554480000000000000000000000600082015250565b6000610867601583610820565b915061087282610831565b602082019050919050565b600060208201905081810360008301526108968161085a565b9050919050565b7f4e487b7100000000000000000000000000000000000000000000000000000000600052603260045260246000fd5b7f4e487b7100000000000000000000000000000000000000000000000000000000600052604160045260246000fd5b600081905092915050565b50565b60006109166000836108fb565b915061092182610906565b600082019050919050565b600061093782610909565b9150819050919050565b7f4661696c656420746f2073656e64207468652066756e64730000000000000000600082015250565b6000610977601883610820565b915061098282610941565b602082019050919050565b600060208201905081810360008301526109a68161096a565b9050919050565b7f4e487b7100000000000000000000000000000000000000000000000000000000600052601160045260246000fd5b60006109e782610752565b91506109f283610752565b9250828202610a0081610752565b91508282048414831517610a1757610a166109ad565b5b5092915050565b7f4e487b7100000000000000000000000000000000000000000000000000000000600052601260045260246000fd5b6000610a5882610752565b9150610a6383610752565b925082610a7357610a72610a1e565b5b828204905092915050565b600069ffffffffffffffffffff82169050919050565b610a9d81610a7e565b8114610aa857600080fd5b50565b600081519050610aba81610a94565b92915050565b6000819050919050565b610ad381610ac0565b8114610ade57600080fd5b50565b600081519050610af081610aca565b92915050565b600081519050610b05816107c7565b92915050565b600080600080600060a08688031215610b2757610b266107c2565b5b6000610b3588828901610aab565b9550506020610b4688828901610ae1565b9450506040610b5788828901610af6565b9350506060610b6888828901610af6565b9250506080610b7988828901610aab565b9150509295509295909350565b6000610b9182610ac0565b9150610b9c83610ac0565b9250828202610baa81610ac0565b91507f80000000000000000000000000000000000000000000000000000000000000008414600084121615610be257610be16109ad565b5b8282058414831517610bf757610bf66109ad565b5b509291505056fea2646970667358221220c415257341015775fcd61992c3721db6aff6a074f99243e2f481ea29bd025e6264736f6c634300081a0033",
  "devdoc": {
    "author": "inukaG on behalf of Axion chain labs",
    "details": "The FundMe contract has a minimum value of 50 USD to fund the contract.",
    "kind": "dev",
    "methods": {},
    "title": "FundMe",
    "version": 1
  },
  "userdoc": {
    "kind": "user",
    "methods": {},
    "version": 1
  },
  "storageLayout": {
    "storage": [
      {
        "astId": 62,
        "contract": "contracts/FundMe.sol:FundMe",
        "label": "funders",
        "offset": 0,
        "slot": "0",
        "type": "t_array(t_address)dyn_storage"
      },
      {
        "astId": 66,
        "contract": "contracts/FundMe.sol:FundMe",
        "label": "addressToAmount",
        "offset": 0,
        "slot": "1",
        "type": "t_mapping(t_address,t_uint256)"
      },
      {
        "astId": 71,
        "contract": "contracts/FundMe.sol:FundMe",
        "label": "priceFeedContract",
        "offset": 0,
        "slot": "2",
        "type": "t_contract(AggregatorV3Interface)45"
      }
    ],
    "types": {
      "t_address": {
        "encoding": "inplace",
        "label": "address",
        "numberOfBytes": "20"
      },
      "t_array(t_address)dyn_storage": {
        "base": "t_address",
        "encoding": "dynamic_array",
        "label": "address[]",
        "numberOfBytes": "32"
      },
      "t_contract(AggregatorV3Interface)45": {
        "encoding": "inplace",
        "label": "contract AggregatorV3Interface",
        "numberOfBytes": "20"
      },
      "t_mapping(t_address,t_uint256)": {
        "encoding": "mapping",
        "key": "t_address",
        "label": "mapping(address => uint256)",
        "numberOfBytes": "32",
        "value": "t_uint256"
      },
      "t_uint256": {
        "encoding": "inplace",
        "label": "uint256",
        "numberOfBytes": "32"
      }
    }
  }
}